{
  "_format": "hh-sol-artifact-1",
  "contractName": "CryptoVest",
  "sourceName": "contracts/CryptoVest.sol",
  "abi": [
    {
      "anonymous": false,
      "inputs": [
        {
          "indexed": false,
          "internalType": "address",
          "name": "sender",
          "type": "address"
        },
        {
          "indexed": false,
          "internalType": "uint256",
          "name": "amount",
          "type": "uint256"
        },
        {
          "indexed": false,
          "internalType": "string",
          "name": "tokenName",
          "type": "string"
        }
      ],
      "name": "fundWallet",
      "type": "event"
    },
    {
      "anonymous": false,
      "inputs": [
        {
          "indexed": false,
          "internalType": "uint256",
          "name": "amount",
          "type": "uint256"
        },
        {
          "indexed": false,
          "internalType": "uint256",
          "name": "duration",
          "type": "uint256"
        },
        {
          "indexed": false,
          "internalType": "uint256",
          "name": "blockNumberAtCreation",
          "type": "uint256"
        },
        {
          "indexed": false,
          "internalType": "uint256",
          "name": "interest",
          "type": "uint256"
        },
        {
          "indexed": false,
          "internalType": "string",
          "name": "reason",
          "type": "string"
        },
        {
          "indexed": false,
          "internalType": "string",
          "name": "status",
          "type": "string"
        },
        {
          "indexed": false,
          "internalType": "address",
          "name": "owner",
          "type": "address"
        }
      ],
      "name": "safelockCreated",
      "type": "event"
    },
    {
      "anonymous": false,
      "inputs": [
        {
          "indexed": false,
          "internalType": "address",
          "name": "sender",
          "type": "address"
        },
        {
          "indexed": false,
          "internalType": "uint256",
          "name": "newDuration",
          "type": "uint256"
        }
      ],
      "name": "safelockUpdated",
      "type": "event"
    },
    {
      "inputs": [
        {
          "internalType": "uint256",
          "name": "duration",
          "type": "uint256"
        },
        {
          "internalType": "string",
          "name": "reason",
          "type": "string"
        }
      ],
      "name": "createSafelock",
      "outputs": [],
      "stateMutability": "payable",
      "type": "function"
    },
    {
      "inputs": [
        {
          "internalType": "address",
          "name": "loggedInUser",
          "type": "address"
        },
        {
          "components": [
            {
              "internalType": "uint256",
              "name": "amount",
              "type": "uint256"
            },
            {
              "internalType": "uint256",
              "name": "duration",
              "type": "uint256"
            },
            {
              "internalType": "uint256",
              "name": "blockNumberAtCreation",
              "type": "uint256"
            },
            {
              "internalType": "uint256",
              "name": "interest",
              "type": "uint256"
            },
            {
              "internalType": "string",
              "name": "reason",
              "type": "string"
            },
            {
              "internalType": "string",
              "name": "status",
              "type": "string"
            },
            {
              "internalType": "address",
              "name": "owner",
              "type": "address"
            }
          ],
          "internalType": "struct CryptoVest.Safelock",
          "name": "safeLock",
          "type": "tuple"
        }
      ],
      "name": "getInterest",
      "outputs": [
        {
          "internalType": "uint256",
          "name": "",
          "type": "uint256"
        }
      ],
      "stateMutability": "nonpayable",
      "type": "function"
    },
    {
      "inputs": [
        {
          "internalType": "address",
          "name": "loggedInUser",
          "type": "address"
        }
      ],
      "name": "getSafeLocks",
      "outputs": [
        {
          "components": [
            {
              "internalType": "uint256",
              "name": "amount",
              "type": "uint256"
            },
            {
              "internalType": "uint256",
              "name": "duration",
              "type": "uint256"
            },
            {
              "internalType": "uint256",
              "name": "blockNumberAtCreation",
              "type": "uint256"
            },
            {
              "internalType": "uint256",
              "name": "interest",
              "type": "uint256"
            },
            {
              "internalType": "string",
              "name": "reason",
              "type": "string"
            },
            {
              "internalType": "string",
              "name": "status",
              "type": "string"
            },
            {
              "internalType": "address",
              "name": "owner",
              "type": "address"
            }
          ],
          "internalType": "struct CryptoVest.Safelock[]",
          "name": "",
          "type": "tuple[]"
        }
      ],
      "stateMutability": "view",
      "type": "function"
    }
  ],
  "bytecode": "0x608060405234801561001057600080fd5b50610c76806100206000396000f3fe6080604052600436106100345760003560e01c806366656b631461003957806396a93e1c14610076578063cf7424cb14610092575b600080fd5b34801561004557600080fd5b50610060600480360381019061005b9190610778565b6100cf565b60405161006d91906107e3565b60405180910390f35b610090600480360381019061008b91906107fe565b61014b565b005b34801561009e57600080fd5b506100b960048036038101906100b4919061085a565b6101e5565b6040516100c69190610a92565b60405180910390f35b6000828073ffffffffffffffffffffffffffffffffffffffff163373ffffffffffffffffffffffffffffffffffffffff1614610140576040517f08c379a000000000000000000000000000000000000000000000000000000000815260040161013790610b37565b60405180910390fd5b600a91505092915050565b600060143461015a9190610b86565b905060006040518060e00160405280348152602001858152602001438152602001601e81526020018481526020016040518060400160405280600781526020017f6f6e676f696e670000000000000000000000000000000000000000000000000081525081526020013373ffffffffffffffffffffffffffffffffffffffff16815250905050505050565b6060818073ffffffffffffffffffffffffffffffffffffffff163373ffffffffffffffffffffffffffffffffffffffff1614610256576040517f08c379a000000000000000000000000000000000000000000000000000000000815260040161024d90610b37565b60405180910390fd5b6000803373ffffffffffffffffffffffffffffffffffffffff1673ffffffffffffffffffffffffffffffffffffffff168152602001908152602001600020805480602002602001604051908101604052809291908181526020016000905b8282101561048857838290600052602060002090600702016040518060e00160405290816000820154815260200160018201548152602001600282015481526020016003820154815260200160048201805461030f90610c0f565b80601f016020809104026020016040519081016040528092919081815260200182805461033b90610c0f565b80156103885780601f1061035d57610100808354040283529160200191610388565b820191906000526020600020905b81548152906001019060200180831161036b57829003601f168201915b505050505081526020016005820180546103a190610c0f565b80601f01602080910402602001604051908101604052809291908181526020018280546103cd90610c0f565b801561041a5780601f106103ef5761010080835404028352916020019161041a565b820191906000526020600020905b8154815290600101906020018083116103fd57829003601f168201915b505050505081526020016006820160009054906101000a900473ffffffffffffffffffffffffffffffffffffffff1673ffffffffffffffffffffffffffffffffffffffff1673ffffffffffffffffffffffffffffffffffffffff1681525050815260200190600101906102b4565b50505050915050919050565b6000604051905090565b600080fd5b600080fd5b600073ffffffffffffffffffffffffffffffffffffffff82169050919050565b60006104d3826104a8565b9050919050565b6104e3816104c8565b81146104ee57600080fd5b50565b600081359050610500816104da565b92915050565b600080fd5b6000601f19601f8301169050919050565b7f4e487b7100000000000000000000000000000000000000000000000000000000600052604160045260246000fd5b6105548261050b565b810181811067ffffffffffffffff821117156105735761057261051c565b5b80604052505050565b6000610586610494565b9050610592828261054b565b919050565b600080fd5b6000819050919050565b6105af8161059c565b81146105ba57600080fd5b50565b6000813590506105cc816105a6565b92915050565b600080fd5b600080fd5b600067ffffffffffffffff8211156105f7576105f661051c565b5b6106008261050b565b9050602081019050919050565b82818337600083830152505050565b600061062f61062a846105dc565b61057c565b90508281526020810184848401111561064b5761064a6105d7565b5b61065684828561060d565b509392505050565b600082601f830112610673576106726105d2565b5b813561068384826020860161061c565b91505092915050565b600060e082840312156106a2576106a1610506565b5b6106ac60e061057c565b905060006106bc848285016105bd565b60008301525060206106d0848285016105bd565b60208301525060406106e4848285016105bd565b60408301525060606106f8848285016105bd565b606083015250608082013567ffffffffffffffff81111561071c5761071b610597565b5b6107288482850161065e565b60808301525060a082013567ffffffffffffffff81111561074c5761074b610597565b5b6107588482850161065e565b60a08301525060c061076c848285016104f1565b60c08301525092915050565b6000806040838503121561078f5761078e61049e565b5b600061079d858286016104f1565b925050602083013567ffffffffffffffff8111156107be576107bd6104a3565b5b6107ca8582860161068c565b9150509250929050565b6107dd8161059c565b82525050565b60006020820190506107f860008301846107d4565b92915050565b600080604083850312156108155761081461049e565b5b6000610823858286016105bd565b925050602083013567ffffffffffffffff811115610844576108436104a3565b5b6108508582860161065e565b9150509250929050565b6000602082840312156108705761086f61049e565b5b600061087e848285016104f1565b91505092915050565b600081519050919050565b600082825260208201905092915050565b6000819050602082019050919050565b6108bc8161059c565b82525050565b600081519050919050565b600082825260208201905092915050565b60005b838110156108fc5780820151818401526020810190506108e1565b8381111561090b576000848401525b50505050565b600061091c826108c2565b61092681856108cd565b93506109368185602086016108de565b61093f8161050b565b840191505092915050565b610953816104c8565b82525050565b600060e08301600083015161097160008601826108b3565b50602083015161098460208601826108b3565b50604083015161099760408601826108b3565b5060608301516109aa60608601826108b3565b50608083015184820360808601526109c28282610911565b91505060a083015184820360a08601526109dc8282610911565b91505060c08301516109f160c086018261094a565b508091505092915050565b6000610a088383610959565b905092915050565b6000602082019050919050565b6000610a2882610887565b610a328185610892565b935083602082028501610a44856108a3565b8060005b85811015610a805784840389528151610a6185826109fc565b9450610a6c83610a10565b925060208a01995050600181019050610a48565b50829750879550505050505092915050565b60006020820190508181036000830152610aac8184610a1d565b905092915050565b600082825260208201905092915050565b7f4f6e6c79206f776e65722063616e2063616c6c20746869732066756e6374696f60008201527f6e2e000000000000000000000000000000000000000000000000000000000000602082015250565b6000610b21602283610ab4565b9150610b2c82610ac5565b604082019050919050565b60006020820190508181036000830152610b5081610b14565b9050919050565b7f4e487b7100000000000000000000000000000000000000000000000000000000600052601160045260246000fd5b6000610b918261059c565b9150610b9c8361059c565b9250817fffffffffffffffffffffffffffffffffffffffffffffffffffffffffffffffff0483118215151615610bd557610bd4610b57565b5b828202905092915050565b7f4e487b7100000000000000000000000000000000000000000000000000000000600052602260045260246000fd5b60006002820490506001821680610c2757607f821691505b602082108103610c3a57610c39610be0565b5b5091905056fea26469706673582212209eb6df36d1d6d60ba57d0ee1501754aeae50afd30a8de264e431a5e8b47326ae64736f6c634300080d0033",
  "linkReferences": {},
  "deployedLinkReferences": {}
}